{
  "contractName": "Hospital",
  "abi": [
    {
      "inputs": [],
      "payable": false,
      "stateMutability": "nonpayable",
      "type": "constructor"
    },
    {
      "anonymous": false,
      "inputs": [
        {
          "indexed": false,
          "internalType": "uint256",
          "name": "id",
          "type": "uint256"
        },
        {
          "indexed": false,
          "internalType": "string",
          "name": "name",
          "type": "string"
        },
        {
          "indexed": false,
          "internalType": "address payable",
          "name": "doctor_acc",
          "type": "address"
        },
        {
          "indexed": false,
          "internalType": "uint256",
          "name": "fees",
          "type": "uint256"
        },
        {
          "indexed": false,
          "internalType": "string",
          "name": "special",
          "type": "string"
        },
        {
          "indexed": false,
          "internalType": "bool",
          "name": "purchased",
          "type": "bool"
        }
      ],
      "name": "AppointmentPurchased",
      "type": "event"
    },
    {
      "anonymous": false,
      "inputs": [
        {
          "indexed": false,
          "internalType": "uint256",
          "name": "id",
          "type": "uint256"
        },
        {
          "indexed": false,
          "internalType": "string",
          "name": "name",
          "type": "string"
        },
        {
          "indexed": false,
          "internalType": "address payable",
          "name": "doctor_acc",
          "type": "address"
        },
        {
          "indexed": false,
          "internalType": "uint256",
          "name": "fees",
          "type": "uint256"
        },
        {
          "indexed": false,
          "internalType": "string",
          "name": "special",
          "type": "string"
        },
        {
          "indexed": false,
          "internalType": "bool",
          "name": "purchased",
          "type": "bool"
        }
      ],
      "name": "DoctorAdded",
      "type": "event"
    },
    {
      "constant": true,
      "inputs": [],
      "name": "doctorCount",
      "outputs": [
        {
          "internalType": "uint256",
          "name": "",
          "type": "uint256"
        }
      ],
      "payable": false,
      "stateMutability": "view",
      "type": "function"
    },
    {
      "constant": true,
      "inputs": [
        {
          "internalType": "uint256",
          "name": "",
          "type": "uint256"
        }
      ],
      "name": "doctors",
      "outputs": [
        {
          "internalType": "uint256",
          "name": "id",
          "type": "uint256"
        },
        {
          "internalType": "string",
          "name": "name",
          "type": "string"
        },
        {
          "internalType": "address payable",
          "name": "doc_acc",
          "type": "address"
        },
        {
          "internalType": "uint256",
          "name": "Cons_fees",
          "type": "uint256"
        },
        {
          "internalType": "string",
          "name": "specialisation",
          "type": "string"
        },
        {
          "internalType": "bool",
          "name": "purchased",
          "type": "bool"
        }
      ],
      "payable": false,
      "stateMutability": "view",
      "type": "function"
    },
    {
      "constant": true,
      "inputs": [],
      "name": "name",
      "outputs": [
        {
          "internalType": "string",
          "name": "",
          "type": "string"
        }
      ],
      "payable": false,
      "stateMutability": "view",
      "type": "function"
    },
    {
      "constant": true,
      "inputs": [],
      "name": "patientCount",
      "outputs": [
        {
          "internalType": "uint256",
          "name": "",
          "type": "uint256"
        }
      ],
      "payable": false,
      "stateMutability": "view",
      "type": "function"
    },
    {
      "constant": true,
      "inputs": [
        {
          "internalType": "uint256",
          "name": "",
          "type": "uint256"
        }
      ],
      "name": "patients",
      "outputs": [
        {
          "internalType": "uint256",
          "name": "id",
          "type": "uint256"
        },
        {
          "internalType": "string",
          "name": "name",
          "type": "string"
        },
        {
          "internalType": "string",
          "name": "age",
          "type": "string"
        },
        {
          "internalType": "string",
          "name": "healthIssue",
          "type": "string"
        },
        {
          "internalType": "string",
          "name": "gender",
          "type": "string"
        },
        {
          "internalType": "string",
          "name": "modeofappointment",
          "type": "string"
        },
        {
          "internalType": "string",
          "name": "specialneedy",
          "type": "string"
        },
        {
          "internalType": "address payable",
          "name": "pat_acc",
          "type": "address"
        },
        {
          "internalType": "address payable",
          "name": "doctor_account",
          "type": "address"
        }
      ],
      "payable": false,
      "stateMutability": "view",
      "type": "function"
    },
    {
      "constant": false,
      "inputs": [
        {
          "internalType": "string",
          "name": "_name",
          "type": "string"
        },
        {
          "internalType": "uint256",
          "name": "_fees",
          "type": "uint256"
        },
        {
          "internalType": "string",
          "name": "_special",
          "type": "string"
        }
      ],
      "name": "addDoctor",
      "outputs": [],
      "payable": false,
      "stateMutability": "nonpayable",
      "type": "function"
    },
    {
      "constant": false,
      "inputs": [
        {
          "internalType": "uint256",
          "name": "_docId",
          "type": "uint256"
        },
        {
          "internalType": "string",
          "name": "_name",
          "type": "string"
        },
        {
          "internalType": "string",
          "name": "_age",
          "type": "string"
        },
        {
          "internalType": "string",
          "name": "_issue",
          "type": "string"
        },
        {
          "internalType": "string",
          "name": "_gender",
          "type": "string"
        },
        {
          "internalType": "string",
          "name": "_modeofappointment",
          "type": "string"
        },
        {
          "internalType": "string",
          "name": "_specialneedy",
          "type": "string"
        }
      ],
      "name": "addAppointment",
      "outputs": [],
      "payable": true,
      "stateMutability": "payable",
      "type": "function"
    }
  ],
  "bytecode": "0x6080604052600060015560006003553480156200001b57600080fd5b506040518060400160405280601181526020017f4e6174696f6e616c20486f73706974616c000000000000000000000000000000815250600090805190602001906200006992919062000070565b506200011f565b828054600181600116156101000203166002900490600052602060002090601f016020900481019282601f10620000b357805160ff1916838001178555620000e4565b82800160010185558215620000e4579182015b82811115620000e3578251825591602001919060010190620000c6565b5b509050620000f39190620000f7565b5090565b6200011c91905b8082111562000118576000816000905550600101620000fe565b5090565b90565b61147c806200012f6000396000f3fe6080604052600436106100705760003560e01c806378522bc41161004e57806378522bc4146100fe57806393119a8314610129578063a0303c411461016e578063ed59fead1461019957610070565b806306fdde03146100755780632c2dac09146100a05780636efb1b84146100bc575b600080fd5b34801561008157600080fd5b5061008a6101c2565b60405161009791906110b1565b60405180910390f35b6100ba60048036036100b59190810190610e55565b610260565b005b3480156100c857600080fd5b506100e360048036036100de9190810190610e2c565b610551565b6040516100f59695949392919061115d565b60405180910390f35b34801561010a57600080fd5b506101136106ea565b60405161012091906110d3565b60405180910390f35b34801561013557600080fd5b50610150600480360361014b9190810190610e2c565b6106f0565b604051610165999897969594939291906111cc565b60405180910390f35b34801561017a57600080fd5b50610183610b0e565b60405161019091906110d3565b60405180910390f35b3480156101a557600080fd5b506101c060048036036101bb9190810190610dad565b610b14565b005b60008054600181600116156101000203166002900480601f0160208091040260200160405190810160405280929190818152602001828054600181600116156101000203166002900480156102585780601f1061022d57610100808354040283529160200191610258565b820191906000526020600020905b81548152906001019060200180831161023b57829003601f168201915b505050505081565b600060026000898152602001908152602001600020905060008160020160009054906101000a900473ffffffffffffffffffffffffffffffffffffffff16905060405180610120016040528060035481526020018981526020018881526020018781526020018681526020018581526020018481526020013373ffffffffffffffffffffffffffffffffffffffff168152602001600260008c815260200190815260200160002060020160009054906101000a900473ffffffffffffffffffffffffffffffffffffffff1673ffffffffffffffffffffffffffffffffffffffff16815250600460006003600081548092919060010191905055815260200190815260200160002060008201518160000155602082015181600101908051906020019061038d929190610c9f565b5060408201518160020190805190602001906103aa929190610c9f565b5060608201518160030190805190602001906103c7929190610c9f565b5060808201518160040190805190602001906103e4929190610c9f565b5060a0820151816005019080519060200190610401929190610c9f565b5060c082015181600601908051906020019061041e929190610c9f565b5060e08201518160070160006101000a81548173ffffffffffffffffffffffffffffffffffffffff021916908373ffffffffffffffffffffffffffffffffffffffff1602179055506101008201518160080160006101000a81548173ffffffffffffffffffffffffffffffffffffffff021916908373ffffffffffffffffffffffffffffffffffffffff1602179055509050508073ffffffffffffffffffffffffffffffffffffffff166108fc349081150290604051600060405180830381858888f193505050501580156104f7573d6000803e3d6000fd5b507f460b0bf53114e5ce1b43eeb55eccdad64712b6ac96f0db4fca1bf334367956d56001548360010133856003015486600401600160405161053e96959493929190611283565b60405180910390a1505050505050505050565b6002602052806000526040600020600091509050806000015490806001018054600181600116156101000203166002900480601f0160208091040260200160405190810160405280929190818152602001828054600181600116156101000203166002900480156106035780601f106105d857610100808354040283529160200191610603565b820191906000526020600020905b8154815290600101906020018083116105e657829003601f168201915b5050505050908060020160009054906101000a900473ffffffffffffffffffffffffffffffffffffffff1690806003015490806004018054600181600116156101000203166002900480601f0160208091040260200160405190810160405280929190818152602001828054600181600116156101000203166002900480156106cd5780601f106106a2576101008083540402835291602001916106cd565b820191906000526020600020905b8154815290600101906020018083116106b057829003601f168201915b5050505050908060050160009054906101000a900460ff16905086565b60015481565b6004602052806000526040600020600091509050806000015490806001018054600181600116156101000203166002900480601f0160208091040260200160405190810160405280929190818152602001828054600181600116156101000203166002900480156107a25780601f10610777576101008083540402835291602001916107a2565b820191906000526020600020905b81548152906001019060200180831161078557829003601f168201915b505050505090806002018054600181600116156101000203166002900480601f0160208091040260200160405190810160405280929190818152602001828054600181600116156101000203166002900480156108405780601f1061081557610100808354040283529160200191610840565b820191906000526020600020905b81548152906001019060200180831161082357829003601f168201915b505050505090806003018054600181600116156101000203166002900480601f0160208091040260200160405190810160405280929190818152602001828054600181600116156101000203166002900480156108de5780601f106108b3576101008083540402835291602001916108de565b820191906000526020600020905b8154815290600101906020018083116108c157829003601f168201915b505050505090806004018054600181600116156101000203166002900480601f01602080910402602001604051908101604052809291908181526020018280546001816001161561010002031660029004801561097c5780601f106109515761010080835404028352916020019161097c565b820191906000526020600020905b81548152906001019060200180831161095f57829003601f168201915b505050505090806005018054600181600116156101000203166002900480601f016020809104026020016040519081016040528092919081815260200182805460018160011615610100020316600290048015610a1a5780601f106109ef57610100808354040283529160200191610a1a565b820191906000526020600020905b8154815290600101906020018083116109fd57829003601f168201915b505050505090806006018054600181600116156101000203166002900480601f016020809104026020016040519081016040528092919081815260200182805460018160011615610100020316600290048015610ab85780601f10610a8d57610100808354040283529160200191610ab8565b820191906000526020600020905b815481529060010190602001808311610a9b57829003601f168201915b5050505050908060070160009054906101000a900473ffffffffffffffffffffffffffffffffffffffff16908060080160009054906101000a900473ffffffffffffffffffffffffffffffffffffffff16905089565b60035481565b6000835111610b2257600080fd5b60008211610b2f57600080fd5b6001600081548092919060010191905055506040518060c0016040528060015481526020018481526020013373ffffffffffffffffffffffffffffffffffffffff16815260200183815260200182815260200160001515815250600260006001548152602001908152602001600020600082015181600001556020820151816001019080519060200190610bc4929190610c9f565b5060408201518160020160006101000a81548173ffffffffffffffffffffffffffffffffffffffff021916908373ffffffffffffffffffffffffffffffffffffffff160217905550606082015181600301556080820151816004019080519060200190610c32929190610c9f565b5060a08201518160050160006101000a81548160ff0219169083151502179055509050507f96765778da2475fd221b4ac92741365cf2dceebf53fefaaf1257b40289f3c178600154843385856000604051610c92969594939291906110ee565b60405180910390a1505050565b828054600181600116156101000203166002900490600052602060002090601f016020900481019282601f10610ce057805160ff1916838001178555610d0e565b82800160010185558215610d0e579182015b82811115610d0d578251825591602001919060010190610cf2565b5b509050610d1b9190610d1f565b5090565b610d4191905b80821115610d3d576000816000905550600101610d25565b5090565b90565b600082601f830112610d5557600080fd5b8135610d68610d638261131f565b6112f2565b91508082526020830160208301858383011115610d8457600080fd5b610d8f8382846113cf565b50505092915050565b600081359050610da781611422565b92915050565b600080600060608486031215610dc257600080fd5b600084013567ffffffffffffffff811115610ddc57600080fd5b610de886828701610d44565b9350506020610df986828701610d98565b925050604084013567ffffffffffffffff811115610e1657600080fd5b610e2286828701610d44565b9150509250925092565b600060208284031215610e3e57600080fd5b6000610e4c84828501610d98565b91505092915050565b600080600080600080600060e0888a031215610e7057600080fd5b6000610e7e8a828b01610d98565b975050602088013567ffffffffffffffff811115610e9b57600080fd5b610ea78a828b01610d44565b965050604088013567ffffffffffffffff811115610ec457600080fd5b610ed08a828b01610d44565b955050606088013567ffffffffffffffff811115610eed57600080fd5b610ef98a828b01610d44565b945050608088013567ffffffffffffffff811115610f1657600080fd5b610f228a828b01610d44565b93505060a088013567ffffffffffffffff811115610f3f57600080fd5b610f4b8a828b01610d44565b92505060c088013567ffffffffffffffff811115610f6857600080fd5b610f748a828b01610d44565b91505092959891949750929550565b610f8c81611387565b82525050565b610f9b81611399565b82525050565b6000610fac8261136b565b610fb68185611376565b9350610fc68185602086016113de565b610fcf81611411565b840191505092915050565b6000610fe582611360565b610fef8185611376565b9350610fff8185602086016113de565b61100881611411565b840191505092915050565b60008154600181166000811461103057600181146110565761109a565b607f60028304166110418187611376565b955060ff19831686526020860193505061109a565b600282046110648187611376565b955061106f8561134b565b60005b8281101561109157815481890152600182019150602081019050611072565b80880195505050505b505092915050565b6110ab816113c5565b82525050565b600060208201905081810360008301526110cb8184610fda565b905092915050565b60006020820190506110e860008301846110a2565b92915050565b600060c08201905061110360008301896110a2565b81810360208301526111158188610fa1565b90506111246040830187610f83565b61113160608301866110a2565b81810360808301526111438185610fa1565b905061115260a0830184610f92565b979650505050505050565b600060c08201905061117260008301896110a2565b81810360208301526111848188610fda565b90506111936040830187610f83565b6111a060608301866110a2565b81810360808301526111b28185610fda565b90506111c160a0830184610f92565b979650505050505050565b6000610120820190506111e2600083018c6110a2565b81810360208301526111f4818b610fda565b90508181036040830152611208818a610fda565b9050818103606083015261121c8189610fda565b905081810360808301526112308188610fda565b905081810360a08301526112448187610fda565b905081810360c08301526112588186610fda565b905061126760e0830185610f83565b611275610100830184610f83565b9a9950505050505050505050565b600060c08201905061129860008301896110a2565b81810360208301526112aa8188611013565b90506112b96040830187610f83565b6112c660608301866110a2565b81810360808301526112d88185611013565b90506112e760a0830184610f92565b979650505050505050565b6000604051905081810181811067ffffffffffffffff8211171561131557600080fd5b8060405250919050565b600067ffffffffffffffff82111561133657600080fd5b601f19601f8301169050602081019050919050565b60008190508160005260206000209050919050565b600081519050919050565b600081519050919050565b600082825260208201905092915050565b6000611392826113a5565b9050919050565b60008115159050919050565b600073ffffffffffffffffffffffffffffffffffffffff82169050919050565b6000819050919050565b82818337600083830152505050565b60005b838110156113fc5780820151818401526020810190506113e1565b8381111561140b576000848401525b50505050565b6000601f19601f8301169050919050565b61142b816113c5565b811461143657600080fd5b5056fea365627a7a72315820e5f590b738ae0a52450e7577e76077a92341efb1609da412e4cc19a3755a818b6c6578706572696d656e74616cf564736f6c63430005100040",
  "source": "pragma solidity >=0.4.21;\npragma experimental ABIEncoderV2;\n// pragma solidity ^0.5.16;\ncontract Hospital {\n    string public name;\n    constructor () public {\n        name = \"National Hospital\";\n    }\n\n    uint public doctorCount = 0;\n    mapping(uint => Doctor) public doctors;\n\n    uint public patientCount = 0;\n    mapping(uint => Patient) public patients;\n\n    struct Patient{\n        uint id;\n        string name;\n        string age;\n        string healthIssue;\n        string gender;\n        string modeofappointment;\n        string specialneedy;\n        address payable pat_acc;\n        address payable doctor_account;\n    }\n    \n\tstruct Doctor{\n\t\tuint id;\n\t\tstring name;\n        address payable doc_acc;\n\t\tuint Cons_fees;\n\t\tstring specialisation;\n        bool purchased;\n\t}\n\t\n\tevent DoctorAdded(\n        uint id,\n        string name,\n        address payable doctor_acc,\n        uint fees,\n        string special,\n        bool purchased\n    );\n    event AppointmentPurchased(\n        uint id,\n        string name,\n        address payable doctor_acc,\n        uint fees,\n        string special,\n        bool purchased\n    );\n\n\t\n\n\tfunction addDoctor(string memory _name, uint _fees, string memory _special) public {\n        \n        // Require a valid name\n        require(bytes(_name).length > 0);\n        // Require a valid price\n        require(_fees > 0);\n        // Increment doctor count\n        doctorCount ++;\n        // Add the doctor\n        \n        doctors[doctorCount] = Doctor(doctorCount, _name,(msg.sender),_fees, _special,false);\n        // Triggering the event\n        emit DoctorAdded(doctorCount, _name,(msg.sender), _fees, _special,false);\n    }\n\n    function addAppointment(uint _docId, string memory _name, string memory _age, string memory _issue, string memory _gender, string memory _modeofappointment, string memory _specialneedy) public payable {\n        //create a patient\n        //Patient storage pat = Patient(patientCount,_pat_nem,msg.sender,_pat_spec);\n        // address payable temp;\n        // temp=msg.sender; \n        \n        //fetch the doctor\n        Doctor storage _doctor = doctors[_docId];\n        \n        //fetch the owner\n        address payable _seller = _doctor.doc_acc;\n        //mark as purchased\n        // _doctor.purchased = true;\n        //update doctor\n        //doctors[_docId] = _doctor;\n        //pay the seller\n        patients[patientCount++]=Patient(patientCount,_name,_age,_issue,_gender,_modeofappointment,_specialneedy,   msg.sender,doctors[_docId].doc_acc);\n        \n        address(_seller).transfer(msg.value);\n        //trigger an event\n        \n        \n        emit AppointmentPurchased(doctorCount, _doctor.name,(msg.sender),   _doctor.Cons_fees, _doctor.specialisation,true);\n\n    }\n    \n}",
  "sourcePath": "/home/knight-night/Projects/thak_gya_hu/Monies-Hackathon/starter_kit-master/src/contracts/Hospital.sol",
  "compiler": {
    "name": "solc",
    "version": "0.5.16+commit.9c3226ce.Emscripten.clang"
  },
  "schemaVersion": "3.4.4",
  "updatedAt": "2022-02-13T17:20:06.827Z",
  "networkType": "ethereum",
  "devdoc": {
    "methods": {}
  },
  "userdoc": {
    "methods": {}
  }
}